:100000000C942A000C9447000C9447000C94470071
:100010000C9447000C9447000C9447000C94470044
:100020000C9447000C9447000C9447000C94470034
:100030000C9447000C9447000C9447000C94470024
:100040000C9447000C9447000C9447000C94470014
:100050000C94470011241FBECFE5D8E0DEBFCDBF12
:1000600011E0A0E6B0E0E0E6F5E302C005900D92F5
:10007000A035B107D9F711E0A0E5B1E001C01D92AC
:10008000AF35B107E1F70E945B120C94AE1A0C94E5
:100090000000EF92FF920F931F937B018C0120E0F1
:1000A00030E040E05FE40E94F50388238CF0C80153
:1000B000B70120E030E040E05FE40E94C1010E940F
:1000C00055049B01AC01205030404040504806C0D0
:1000D000C801B7010E9455049B01AC01B901CA01D6
:1000E0001F910F91FF90EF900895A0E0B0E0EBE733
:1000F000F0E00C94771ADC012B01FA019C9192300C
:1001000008F439C1EB018881823008F433C194309E
:1001100069F4843009F02FC111969C91119789815F
:10012000981709F428C1A9E2B1E025C1843009F487
:1001300021C18230A9F4923009F01DC19A01AD01AC
:1001400088E0EA010990AE01E90109929E0181501F
:10015000C1F7E201898111969C918923818308C1AD
:10016000923009F407C112962D903C901397EB0141
:100170008A819B811496AD90BD90CD90DC901797AD
:10018000EC80FD800E811F819101281B390BB90184
:1001900037FF04C066277727621B730B6032710537
:1001A0000CF061C0121613066CF537014801062EDB
:1001B00004C096948794779467940A94D2F721E0C8
:1001C00030E040E050E004C0220F331F441F551FB1
:1001D0006A95D2F721503040404050402E213F21B7
:1001E00040235123211531054105510521F021E01E
:1001F00030E040E050E079018A01E628F72808293C
:1002000019293CC0232BD1F1260E371E350146019A
:10021000062E04C096948794779467940A94D2F734
:1002200021E030E040E050E004C0220F331F441FC3
:10023000551F6A95D2F721503040404050402A2146
:100240003B214C215D21211531054105510521F04E
:1002500021E030E040E050E059016A01A628B728CB
:10026000C828D9280BC0821593052CF01C01AA249C
:10027000BB24650103C0EE24FF24870111969C91E5
:10028000D20111968C91981709F445C0992339F041
:10029000A80197012A193B094C095D0906C0A6016E
:1002A00095012E193F09400B510B57FD08C01182D3
:1002B0003382228224833583468357831DC081E0A5
:1002C00081833382228288279927DC01821B930B4A
:1002D000A40BB50B84839583A683B7830DC0220F2F
:1002E000331F441F551F24833583468357838281E0
:1002F000938101979383828324813581468157813D
:10030000DA01C9010197A109B1098F5F9F4FAF4F72
:10031000BF4328F30BC0918333822282EA0CFB1C7B
:100320000C1D1D1DE482F5820683178383E0808304
:10033000248135814681578157FF1AC0C901AA27F8
:1003400097FDA095BA2F81709070A070B0705695EF
:10035000479537952795822B932BA42BB52B848318
:100360009583A683B7838281938101969383828349
:10037000DF0101C0D201CD01CDB7DEB7E2E10C94BF
:10038000931AA0E2B0E0E7ECF1E00C94831A6983E1
:100390007A838B839C832D833E834F835887E9E048
:1003A000EE2EF12CEC0EFD1ECE010196B7010E943F
:1003B0007E058E010F5E1F4FCE010596B8010E948B
:1003C0007E058A8991E089278A8BC701B801AE0131
:1003D000475E5F4F0E9475000E94A904A096E6E068
:1003E0000C949F1AA0E2B0E0E8EFF1E00C94831ABD
:1003F00069837A838B839C832D833E834F835887C5
:10040000F9E0EF2EF12CEC0EFD1ECE010196B701A6
:100410000E947E058E010F5E1F4FCE010596B8012A
:100420000E947E05C701B801AE01475E5F4F0E9482
:1004300075000E94A904A096E6E00C949F1AA0E221
:10044000B0E0E5E2F2E00C94771A69837A838B835B
:100450009C832D833E834F835887CE010196BE0136
:10046000675F7F4F0E947E05CE010596BE016F5EDD
:100470007F4F0E947E059985923088F0898982306D
:10048000C8F0943019F4823051F404C0843029F457
:10049000923081F489E291E0C6C0923049F420E0C4
:1004A0009A858A89981321E02A87CE010996BBC0D4
:1004B000823049F420E09A858A89981321E02A8BBA
:1004C000CE014196B0C02D843E844F8458886D88FB
:1004D0007E888F88988CEE24FF248701AA24BB2471
:1004E000650140E050E060E070E0E0E0F0E0C10174
:1004F00081709070892BE9F0E60CF71C081D191D1E
:100500009A01AB012A0D3B1D4C1D5D1D80E090E062
:10051000A0E0B0E0E614F7040805190520F481E036
:1005200090E0A0E0B0E0BA01A901480F591F6A1F8E
:100530007B1FAA0CBB1CCC1CDD1C97FE08C081E0F5
:1005400090E0A0E0B0E0A82AB92ACA2ADB2A3196B6
:10055000E032F10549F0660C771C881C991C569412
:10056000479437942794C3CFFA85EA892B893C892D
:100570008B859C85280F391F2E5F3F4F17C0CA01FE
:1005800081709070892B61F016950795F794E79428
:1005900080E090E0A0E0B0E8E82AF92A0A2B1B2BC3
:1005A00076956795579547952F5F3F4F77FDE7CF36
:1005B0000CC0440F551F661F771F17FD4160EE0CDE
:1005C000FF1C001F111F21503040403090E05907A0
:1005D00090E0690790E4790760F32B8F3C8FDB0193
:1005E000CA018F779070A070B07080349105A1051A
:1005F000B10561F447FD0AC0E114F10401051105DC
:1006000029F0405C5F4F6F4F7F4F40781A8EFE1786
:1006100011F081E08A8F4D8F5E8F6F8F78A383E01A
:10062000898FCE0149960E94A904A096E2E10C941C
:10063000931AA8E1B0E0EFE1F3E00C947F1A69832C
:100640007A838B839C832D833E834F835887B9E0C5
:10065000EB2EF12CEC0EFD1ECE010196B7010E948F
:100660007E058E010F5E1F4FCE010596B8010E94D8
:100670007E052985223008F47EC03989323010F495
:10068000B8017CC08A859A8989278A87243011F02D
:10069000223031F4231709F06EC069E271E06EC0B8
:1006A000343039F41D861E861F86188A1C861B86E8
:1006B00004C0323021F484E08987B7015FC02B8504
:1006C0003C858B899C89281B390B3C872B87ED84C3
:1006D000FE840F851889AD88BE88CF88D88CEA142F
:1006E000FB040C051D0540F4EE0CFF1C001F111F40
:1006F000215030403C872B8720E030E040E050E044
:1007000080E090E0A0E0B0E460E070E0EA14FB0478
:100710000C051D0540F0282B392B4A2B5B2BEA18C2
:10072000FB080C091D09B695A79597958795EE0CC2
:10073000FF1C001F111F6F5F7F4F6F31710531F775
:10074000DA01C9018F779070A070B0708034910584
:10075000A105B10561F427FD0AC0E114F10401050A
:10076000110529F0205C3F4F4F4F5F4F20782D87B8
:100770003E874F87588BBE01675F7F4FCB010E943A
:10078000A9046896EAE00C949B1AA8E1B0E0EBECAF
:10079000F3E00C94831A69837A838B839C832D8383
:1007A0003E834F83588789E0E82EF12CEC0EFD1E26
:1007B000CE010196B7010E947E058E010F5E1F4F8C
:1007C000CE010596B8010E947E058985823040F0F1
:1007D0008989823028F0C701B8010E94F60501C05E
:1007E0008FEF6896E6E00C949F1AA8E1B0E0EBEF7B
:1007F000F3E00C94831A69837A838B839C832D8323
:100800003E834F83588789E0E82EF12CEC0EFD1EC5
:10081000CE010196B7010E947E058E010F5E1F4F2B
:10082000CE010596B8010E947E058985823040F090
:100830008989823028F0C701B8010E94F60501C0FD
:100840008FEF6896E6E00C949F1AA8E1B0E0EBE227
:10085000F4E00C94831A69837A838B839C832D83C1
:100860003E834F83588789E0E82EF12CEC0EFD1E65
:10087000CE010196B7010E947E058E010F5E1F4FCB
:10088000CE010596B8010E947E058985823040F030
:100890008989823028F0C701B8010E94F60501C09D
:1008A00081E06896E6E00C949F1AACE0B0E0EBE5DE
:1008B000F4E00C94871A69837A838B839C83CE013E
:1008C0000196BE016B5F7F4F0E947E058D81823055
:1008D00061F1823050F1843021F48E81882351F10E
:1008E0002EC02F81388537FD20C06E812F31310514
:1008F0001CF06623F9F023C08EE190E0821B930B7D
:1009000029853A854B855C8504C056954795379572
:1009100027958A95D2F76623B1F05095409530958A
:1009200021953F4F4F4F5F4F0EC020E030E040E039
:1009300050E009C02FEF3FEF4FEF5FE704C020E02A
:1009400030E040E050E8B901CA012C96E2E00C9496
:10095000A31ADF92EF92FF920F931F93FC01E480A2
:10096000F58006811781D1808081823048F480E053
:1009700090E0A0E1B0E0E82AF92A0A2B1B2BA5C0E1
:10098000843009F49FC0823021F4EE24FF248701D3
:1009900005C0E114F1040105110519F4E0E0F0E0EF
:1009A00096C0628173819FEF623879070CF05BC05B
:1009B00022E83FEF261B370B2A3131052CF020E0CF
:1009C00030E040E050E02AC0B801A701022E04C088
:1009D00076956795579547950A94D2F781E090E010
:1009E000A0E0B0E004C0880F991FAA1FBB1F2A9582
:1009F000D2F70197A109B1098E219F21A023B1232C
:100A00000097A105B10521F081E090E0A0E0B0E001
:100A10009A01AB01282B392B4A2B5B2BDA01C90138
:100A20008F779070A070B07080349105A105B105EA
:100A300039F427FF09C0205C3F4F4F4F5F4F04C080
:100A4000215C3F4F4F4F5F4FE0E0F0E02030A0E0EF
:100A50003A07A0E04A07A0E45A0710F0E1E0F0E00E
:100A600079018A0127C06038710564F5FB01E158FE
:100A7000FF4FD801C7018F779070A070B07080349D
:100A80009105A105B10539F4E7FE0DC080E490E0C1
:100A9000A0E0B0E004C08FE390E0A0E0B0E0E80E9A
:100AA000F91E0A1F1B1F17FF05C016950795F7941F
:100AB000E794319687E016950795F794E7948A9521
:100AC000D1F705C0EE24FF248701EFEFF0E06E2F91
:100AD000679566276795902F9F77D794DD24D794E5
:100AE0008E2F8695492F462B582F5D29B701CA01B5
:100AF0001F910F91FF90EF90DF900895FC01DB01B3
:100B0000408151812281622F6F7770E0221F22275E
:100B1000221F9381892F880F822B282F30E0991F65
:100B20009927991F11969C93119721153105A9F5C5
:100B3000411551056105710511F482E037C082E865
:100B40009FEF13969C938E9312979A01AB0167E0E7
:100B5000220F331F441F551F6A95D1F783E08C93F2
:100B60000DC0220F331F441F551F12968D919C916B
:100B70001397019713969C938E931297203080E0E1
:100B8000380780E0480780E4580758F314962D93FF
:100B90003D934D935C93179708952F3F310579F45A
:100BA000411551056105710519F484E08C93089590
:100BB00064FF03C081E08C9312C01C9210C02F57B9
:100BC000304013963C932E93129783E08C9387E0EA
:100BD000440F551F661F771F8A95D1F770641496CE
:100BE0004D935D936D937C93179708951F93DC014C
:100BF000FB019C91923008F447C08081823008F458
:100C000043C0943051F411961C91843099F5818140
:100C1000682F70E0611B71093FC0843021F0923071
:100C200031F48230B9F18181882389F12DC0119688
:100C30001C9111978230F1F081811817D9F4129626
:100C40002D913C911397828193818217930794F0A1
:100C500028173907BCF014968D919D910D90BC9189
:100C6000A02D2481358146815781281739074A07ED
:100C70005B0718F4112341F00AC082179307A407F9
:100C8000B50740F4112319F061E070E005C06FEF83
:100C90007FEF02C060E070E0CB011F910895DF9309
:100CA000CF93CDB7DEB72E970FB6F894DEBF0FBE49
:100CB000CDBF8A836B834C8381E089838A818430B2
:100CC00008F06AC18B81883008F066C18A81282FBC
:100CD00030E03E872D878D859E858130910509F412
:100CE00068C02D853E85223031052CF48D859E858A
:100CF000009771F052C12D853E852230310509F4EF
:100D0000A9C08D859E858330910509F4F4C045C145
:100D10008C81282F30E03C872B878B859C85813008
:100D2000910589F12B853C852230310529F08B8591
:100D30009C85009799F03BC0ABE3B0E0EBE3F0E0BB
:100D40008081482F8B81282F30E081E090E002C025
:100D5000880F991F2A95E2F7842B8C93AAE3B0E0C1
:100D6000EAE3F0E08081482F8B81282F30E081E09A
:100D700090E0022E02C0880F991F0A94E2F7809536
:100D800084238C930AC1AAE3B0E0EAE3F0E0808117
:100D9000482F8B81282F30E081E090E0022E02C0A6
:100DA000880F991F0A94E2F7842B8C93F6C019825E
:100DB000F4C08C81282F30E03A87298789859A856D
:100DC0008130910589F129853A852230310529F054
:100DD00089859A85009799F03BC0A8E3B0E0E8E3E5
:100DE000F0E08081482F8B81282F30E081E090E077
:100DF00002C0880F991F2A95E2F7842B8C93A7E3F2
:100E0000B0E0E7E3F0E08081482F8B81282F30E0CD
:100E100081E090E0022E02C0880F991F0A94E2F749
:100E2000809584238C93B9C0A7E3B0E0E7E3F0E0BA
:100E30008081482F8B81282F30E081E090E0022EC6
:100E400002C0880F991F0A94E2F7842B8C93A5C0E7
:100E50001982A3C08C81282F30E038872F838F819F
:100E600098858130910589F12F81388522303105AF
:100E700029F08F819885009799F03BC0A5E3B0E0F9
:100E8000E5E3F0E08081482F8B81282F30E081E07E
:100E900090E002C0880F991F2A95E2F7842B8C936B
:100EA000A4E3B0E0E4E3F0E08081482F8B81282FB9
:100EB00030E081E090E0022E02C0880F991F0A9472
:100EC000E2F7809584238C9368C0A4E3B0E0E4E368
:100ED000F0E08081482F8B81282F30E081E090E086
:100EE000022E02C0880F991F0A94E2F7842B8C937C
:100EF00054C0198252C08C81282F30E03E832D834C
:100F00008D819E818130910589F12D813E81223034
:100F1000310529F08D819E81009799F03BC0A2E3B5
:100F2000B0E0E2E3F0E08081482F8B81282F30E0B1
:100F300081E090E002C0880F991F2A95E2F7842B88
:100F40008C93A1E3B0E0E1E3F0E08081482F8B8156
:100F5000282F30E081E090E0022E02C0880F991F18
:100F60000A94E2F7809584238C9317C0A1E3B0E044
:100F7000E1E3F0E08081482F8B81282F30E081E091
:100F800090E0022E02C0880F991F0A94E2F7842B8A
:100F90008C9303C0198201C0198289812E960FB6E5
:100FA000F894DEBF0FBECDBFCF91DF910895DF93E0
:100FB000CF93CDB7DEB72E970FB6F894DEBF0FBE36
:100FC000CDBF8A836B834C8381E089838B8188309A
:100FD00008F00AC18C81813021F08C81882309F0CE
:100FE00003C18A81282F30E03E872D878D859E851D
:100FF0008130910509F44FC02D853E8522303105A1
:101000002CF48D859E85009771F0ECC02D853E8572
:101010002230310509F477C08D859E858330910596
:1010200009F4A9C0DFC08C81282F30E03C872B87D2
:101030008B859C850097D1F02B853C85213031052F
:1010400009F0D3C0ABE3B0E0EBE3F0E08081482FE0
:101050008B81282F30E081E090E0022E02C0880FC3
:10106000991F0A94E2F7842B8C93BFC0ABE3B0E0E6
:10107000EBE3F0E08081482F8B81282F30E081E086
:1010800090E0022E02C0880F991F0A94E2F7809523
:1010900084238C93AAC08C81282F30E03A8729873B
:1010A00089859A850097D1F029853A8521303105C7
:1010B00009F09BC0A8E3B0E0E8E3F0E08081482FAE
:1010C0008B81282F30E081E090E0022E02C0880F53
:1010D000991F0A94E2F7842B8C9387C0A8E3B0E0B1
:1010E000E8E3F0E08081482F8B81282F30E081E019
:1010F00090E0022E02C0880F991F0A94E2F78095B3
:1011000084238C9372C08C81282F30E038872F8302
:101110008F8198850097D1F02F8138852130310556
:1011200009F063C0A5E3B0E0E5E3F0E08081482F7B
:101130008B81282F30E081E090E0022E02C0880FE2
:10114000991F0A94E2F7842B8C934FC0A5E3B0E07B
:10115000E5E3F0E08081482F8B81282F30E081E0AB
:1011600090E0022E02C0880F991F0A94E2F7809542
:1011700084238C933AC08C81282F30E03E832D83CA
:101180008D819E810097C9F02D813E8121303105EE
:1011900061F5A2E3B0E0E2E3F0E08081482F8B81CB
:1011A000282F30E081E090E0022E02C0880F991FC6
:1011B0000A94E2F7842B8C9318C0A2E3B0E0E2E338
:1011C000F0E08081482F8B81282F30E081E090E093
:1011D000022E02C0880F991F0A94E2F7809584239B
:1011E0008C9303C0198201C0198289812E960FB693
:1011F000F894DEBF0FBECDBFCF91DF910895DF938E
:10120000CF93CDB7DEB727970FB6F894DEBF0FBEEA
:10121000CDBF8A836B835D834C8319828B81883039
:1012200008F079C08C819D81009709F474C081E039
:1012300089838A81282F30E03F832E834E815F810E
:101240004130510559F18E819F818230910534F4EE
:101250002E813F812115310569F05CC04E815F818F
:101260004230510579F18E819F818330910509F4D7
:101270003DC050C0E9E3F0E08081282F30E08B8151
:10128000882F90E0A90102C0559547958A95E2F70D
:10129000CA018170EC81FD8180833DC0E6E3F0E00E
:1012A0008081282F30E08B81882F90E0A90102C037
:1012B000559547958A95E2F7CA018170EC81FD81C9
:1012C000808329C0E3E3F0E08081282F30E08B8128
:1012D000882F90E0A90102C0559547958A95E2F7BD
:1012E000CA018170EC81FD81808315C0E0E3F0E0EC
:1012F0008081282F30E08B81882F90E0A90102C0E7
:10130000559547958A95E2F7CA018170EC81FD8178
:10131000808301C01982898127960FB6F894DEBFB9
:101320000FBECDBFCF91DF910895DF93CF9300D053
:1013300000D00F92CDB7DEB78A836B8381E08983BB
:101340008B81883008F06FC08A81282F30E03D8380
:101350002C838C819D818130910549F12C813D81C7
:10136000223031052CF48C819D81009761F05CC0A6
:101370002C813D812230310571F18C819D8183303A
:101380009105E9F151C0ABE3B0E0EBE3F0E080811F
:10139000482F8B81282F30E081E090E0022E02C0A0
:1013A000880F991F0A94E2F784278C933DC0A8E325
:1013B000B0E0E8E3F0E08081482F8B81282F30E017
:1013C00081E090E0022E02C0880F991F0A94E2F794
:1013D00084278C9329C0A5E3B0E0E5E3F0E08081A9
:1013E000482F8B81282F30E081E090E0022E02C050
:1013F000880F991F0A94E2F784278C9315C0A2E303
:10140000B0E0E2E3F0E08081482F8B81282F30E0CC
:1014100081E090E0022E02C0880F991F0A94E2F743
:1014200084278C9301C0198289810F900F900F90AF
:101430000F900F90CF91DF910895DF93CF93CDB7A9
:10144000DEB72D970FB6F894DEBF0FBECDBF8A83EF
:101450006B8381E089838A81282F30E03D872C8748
:101460008C859D8581309105D1F12C853D8522307B
:1014700031052CF48C859D85009771F099C02C85E1
:101480003D852230310509F44DC08C859D85833022
:10149000910509F46AC08CC08B81282F30E03B870E
:1014A0002A878A859B858130910591F02A853B8525
:1014B0002230310529F08A859B85009729F00DC0DF
:1014C000EBE3F0E08FEF8083EAE3F0E0108271C09D
:1014D000EAE3F0E08FEF80836CC019826AC08B81F1
:1014E000282F30E0398728878885998581309105B4
:1014F00091F0288539852230310529F08885998534
:10150000009729F00DC0E8E3F0E08FEF8083E7E378
:10151000F0E010824EC0E7E3F0E08FEF808349C037
:10152000198247C08B81282F30E03F832E838E8124
:101530009F818130910591F02E813F8122303105CC
:1015400029F08E819F81009729F00DC0E5E3F0E03E
:101550008FEF8083E4E3F0E010822BC0E4E3F0E05F
:101560008FEF808326C0198224C08B81282F30E022
:101570003D832C838C819D818130910591F02C815C
:101580003D812230310529F08C819D81009729F021
:101590000DC0E2E3F0E08FEF8083E1E3F0E0108242
:1015A00008C0E1E3F0E08FEF808303C0198201C03F
:1015B000198289812D960FB6F894DEBF0FBECDBF7C
:1015C000CF91DF910895DF93CF9300D000D00F9299
:1015D000CDB7DEB78A836B8381E089838A81282F28
:1015E00030E03D832C838C819D8181309105D1F049
:1015F0002C813D81223031052CF48C819D81009716
:1016000061F01FC02C813D812230310581F08C8139
:101610009D818330910581F014C0EBE3F0E08B8174
:10162000808310C0E8E3F0E08B8180830BC0E5E3AA
:10163000F0E08B81808306C0E2E3F0E08B81808361
:1016400001C0198289810F900F900F900F900F9019
:10165000CF91DF910895DF93CF9300D000D000D0D9
:10166000CDB7DEB78A837C836B8381E089838B81EE
:101670009C810097E1F18A81282F30E03E832D8301
:101680008D819E8181309105E1F02D813E81223056
:1016900031052CF48D819E81009761F027C02D814A
:1016A0003E8122303105A1F08D819E8183309105EC
:1016B000B1F01CC0E9E3F0E08081EB81FC81808324
:1016C00016C0E6E3F0E08081EB81FC8180830FC0EF
:1016D000E3E3F0E08081EB81FC81808308C0E0E3FC
:1016E000F0E08081EB81FC81808301C019828981D7
:1016F00026960FB6F894DEBF0FBECDBFCF91DF9117
:101700000895DF93CF93CDB7DEB7EAE3F0E080EF43
:101710008083E7E3F0E08FE08083E4E3F0E087E0BC
:101720008083E1E3F0E08FEF8083EBE3F0E08FEF85
:101730008083E8E3F0E01082E5E3F0E01082E2E38A
:10174000F0E01082CF91DF910895DF93CF93CDB772
:10175000DEB765970FB6F894DEBF0FBECDBF9D8B89
:101760008C8B81E08A8B198A1F868C899D890097D2
:1017700009F4FCC0EC89FD898FEF8083198AF1C0E0
:101780008989882F90E0FC01E05BFE4F20818989E8
:10179000882F90E0FC01EF5BFE4F9081822F692F34
:1017A00040E00E94D707188ABFC08889882F90E040
:1017B000FC01EC5AFE4F40818889882F90E0FC01A3
:1017C000EB5BFE4F90819E012D5E3F4F842F692F72
:1017D000A9010E94FF088B89882309F0A2C080E03C
:1017E00090E0A0EAB1E48B879C87AD87BE876B85CC
:1017F0007C858D859E8520E030E04AEF54E40E9490
:101800001F02DC01CB018F839887A987BA876F817C
:10181000788589859A8520E030E040E85FE30E9482
:10182000250488232CF481E090E09E838D833FC0C3
:101830006F81788589859A8520E03FEF4FE757E4EF
:101840000E94C50318164CF56B857C858D859E8599
:1018500020E030E040E251E40E941F02DC01CB01B5
:10186000BC01CD010E944900DC01CB019E838D8328
:101870000FC088EC90E09C838B838B819C810197C7
:10188000F1F79C838B838D819E8101979E838D834D
:101890008D819E81009769F714C06F817885898555
:1018A0009A850E944900DC01CB019E838D838D8146
:1018B0009E819A83898389819A810197F1F79A831E
:1018C00089838889882F90E0FC01EC5AFE4F408183
:1018D0008889882F90E0FC01EB5BFE4F90819E0190
:1018E0002D5E3F4F842F692FA9010E94FF088B892D
:1018F000882339F38989482F50E08889282F30E0E0
:10190000CA01880F991F880F991F820F931FFC012E
:10191000EF5CFE4F8081EC89FD89808381E08F87B9
:1019200007C088898F5F888B8889843008F43DCF11
:101930008989882F90E0FC01E05BFE4F2081898936
:10194000882F90E0FC01EF5BFE4F9081822F692F82
:1019500041E00E94D7078F85813049F089898F5FE8
:10196000898B8989843008F40BCF01C01A8A8A894F
:1019700065960FB6F894DEBF0FBECDBFCF91DF9155
:1019800008950F931F93DF93CF93CDB7DEB7CC5459
:10199000D0400FB6F894DEBF0FBECDBFFE01E75BAF
:1019A000FF4F80E090E0ACE0B2E480839183A283BB
:1019B000B3838E010B5B1F4FFE01E75BFF4F60811E
:1019C00071818281938120E030E04AEF54E40E94EB
:1019D0001F02DC01CB01F80180839183A283B383D2
:1019E000FE01EB5BFF4F608171818281938120E07A
:1019F00030E040E85FE30E942504882344F4FE01C0
:101A0000ED5BFF4F81E090E09183808364C0FE0135
:101A1000EB5BFF4F608171818281938120E03FEF1A
:101A20004FE757E40E94C50318160CF043C0FE01AF
:101A3000E75BFF4F608171818281938120E030E01C
:101A400040E251E40E941F02DC01CB018E010D5BDC
:101A50001F4FBC01CD010E944900DC01CB01F80100
:101A6000918380831FC0FE01EF5BFF4F88EC90E005
:101A700091838083FE01EF5BFF4F8081918101970D
:101A8000F1F7FE01EF5BFF4F91838083DE01AD5BD9
:101A9000BF4FFE01ED5BFF4F808191810197119651
:101AA0009C938E93FE01ED5BFF4F808191810097A7
:101AB000D1F624C08E010D5B1F4FFE01EB5BFF4F83
:101AC00060817181828193810E944900DC01CB0198
:101AD000F80191838083FE01ED5BFF4F808191814E
:101AE000FE01FF9691838083FE01FF9680819181A4
:101AF0000197F1F7FE01FF969183808388E30E94AE
:101B00006E1080E090E0A0E2B2E48BAF9CAFADAF8E
:101B1000BEAF6BAD7CAD8DAD9EAD2BEA3AEA4AE22D
:101B200050E40E941F02DC01CB018FAB98AFA9AF3C
:101B3000BAAF6FA978AD89AD9AAD20E030E040E84A
:101B40005FE30E94250488231CF481E08EAB91C0E2
:101B50006FA978AD89AD9AAD20E030E04FE753E44E
:101B60000E94C50318160CF07BC06BAD7CAD8DAD2B
:101B70009EAD20E030E04AE754E40E941903DC0106
:101B8000CB018AAB9BABACABBDAB6AA97BA98CA9E3
:101B90009DA920E030E04AEF54E40E941F02DC01DE
:101BA000CB018EA79FA7A8ABB9AB6EA57FA588A9CF
:101BB00099A920E030E040E85FE30E9425048823F3
:101BC0002CF481E090E09DA78CA73FC06EA57FA577
:101BD00088A999A920E03FEF4FE757E40E94C50389
:101BE00018164CF56AA97BA98CA99DA920E030E0C4
:101BF00040E251E40E941F02DC01CB01BC01CD0197
:101C00000E944900DC01CB019DA78CA70FC088EC86
:101C100090E09BA78AA78AA59BA50197F1F79BA7B0
:101C20008AA78CA59DA501979DA78CA78CA59DA58E
:101C3000009769F724C06EA57FA588A999A90E947D
:101C40004900DC01CB019DA78CA78CA59DA599A778
:101C500088A788A599A50197F1F799A788A70FC02C
:101C60006FA978AD89AD9AAD0E944900DC01CB0126
:101C70008EAB8EA98FA38FA18A95F1F78FA38FE0EA
:101C80000E946E1080E090E0A0E2B2E48BA39CA3DF
:101C9000ADA3BEA36BA17CA18DA19EA12BEA3AEAC4
:101CA0004AE250E40E941F02DC01CB018F8F98A30F
:101CB000A9A3BAA36F8D78A189A19AA120E030E0F1
:101CC00040E85FE30E94250488231CF481E08E8FA6
:101CD00091C06F8D78A189A19AA120E030E04FE7F3
:101CE00053E40E94C50318160CF07BC06BA17CA1C5
:101CF0008DA19EA120E030E04AE754E40E94190340
:101D0000DC01CB018A8F9B8FAC8FBD8F6A8D7B8D61
:101D10008C8D9D8D20E030E04AEF54E40E941F023C
:101D2000DC01CB018E8B9F8BA88FB98F6E897F8949
:101D3000888D998D20E030E040E85FE30E94250423
:101D400088232CF481E090E09D8B8C8B3FC06E89C2
:101D50007F89888D998D20E03FEF4FE757E40E94FF
:101D6000C50318164CF56A8D7B8D8C8D9D8D20E0FA
:101D700030E040E251E40E941F02DC01CB01BC01D3
:101D8000CD010E944900DC01CB019D8B8C8B0FC0E3
:101D900088EC90E09B8B8A8B8A899B890197F1F76D
:101DA0009B8B8A8B8C899D8901979D8B8C8B8C89D1
:101DB0009D89009769F724C06E897F89888D998DE8
:101DC0000E944900DC01CB019D8B8C8B8C899D8905
:101DD000998B888B888999890197F1F7998B888BE2
:101DE0000FC06F8D78A189A19AA10E944900DC01E2
:101DF000CB018E8F8E8D8F878F858A95F1F78F8798
:101E000081E00E946E1080E090E0A0E0B0E48B875B
:101E10009C87AD87BE876B857C858D859E8520E000
:101E200030E04AEF54E40E941F02DC01CB018F83B3
:101E30009887A987BA876F81788589859A8520E0F8
:101E400030E040E85FE30E94250488232CF481E021
:101E500090E09E838D833FC06F81788589859A85C8
:101E600020E03FEF4FE757E40E94C50318164CF5FA
:101E70006B857C858D859E8520E030E040E251E4D5
:101E80000E941F02DC01CB01BC01CD010E94490070
:101E9000DC01CB019E838D830FC088EC90E09C8396
:101EA0008B838B819C810197F1F79C838B838D8140
:101EB0009E8101979E838D838D819E81009769F716
:101EC00014C06F81788589859A850E944900DC015C
:101ED000CB019E838D838D819E819A8389838981A5
:101EE0009A810197F1F79A83898386E00E946E10A8
:101EF000C45BDF4F0FB6F894DEBF0FBECDBFCF91EE
:101F0000DF911F910F910895DF93CF93CDB7DEB787
:101F100069970FB6F894DEBF0FBECDBF898F82E000
:101F200060E041E00E94D70782E061E040E00E946B
:101F3000D70783E0698D0E94E30A82E062E041E016
:101F40000E94D70780E090E0A0E8BFE38D8B9E8BD6
:101F5000AF8BB88F6D897E898F89988D2BEA3AEA8D
:101F60004AE250E40E941F02DC01CB01898B9A8B6C
:101F7000AB8BBC8B69897A898B899C8920E030E0A6
:101F800040E85FE30E94250488231CF481E0888BED
:101F900091C069897A898B899C8920E030E04FE77C
:101FA00053E40E94C50318160CF07BC06D897E892E
:101FB0008F89988D20E030E04AE754E40E941903AD
:101FC000DC01CB018C879D87AE87BF876C857D85C3
:101FD0008E859F8520E030E04AEF54E40E941F0286
:101FE000DC01CB0188879987AA87BB8768857985BB
:101FF0008A859B8520E030E040E85FE30E9425046D
:1020000088232CF481E090E09F838E833FC0688515
:1020100079858A859B8520E03FEF4FE757E40E9452
:10202000C50318164CF56C857D858E859F8520E04F
:1020300030E040E251E40E941F02DC01CB01BC0110
:10204000CD010E944900DC01CB019F838E830FC02C
:1020500088EC90E09D838C838C819D810197F1F7C2
:102060009D838C838E819F8101979F838E838E8138
:102070009F81009769F724C0688579858A859B854B
:102080000E944900DC01CB019F838E838E819F815A
:102090009B838A838A819B810197F1F79B838A8343
:1020A0000FC069897A898B899C890E944900DC016B
:1020B000CB01888B8889898389818A95F1F7898307
:1020C00082E062E040E00E94D70769960FB6F8947C
:1020D000DEBF0FBECDBFCF91DF910895DF93CF93C9
:1020E000CDB7DEB769970FB6F894DEBF0FBECDBF90
:1020F000898F82E060E040E00E94D70782E061E0E3
:1021000040E00E94D70783E0698D0E94E30A82E0E5
:1021100062E041E00E94D70780E090E0A0E8BFE3E2
:102120008D8B9E8BAF8BB88F6D897E898F89988DB3
:102130002BEA3AEA4AE250E40E941F02DC01CB019A
:10214000898B9A8BAB8BBC8B69897A898B899C89AB
:1021500020E030E040E85FE30E94250488231CF47F
:1021600081E0888B91C069897A898B899C8920E07C
:1021700030E04FE753E40E94C50318160CF07BC013
:102180006D897E898F89988D20E030E04AE754E49C
:102190000E941903DC01CB018C879D87AE87BF8726
:1021A0006C857D858E859F8520E030E04AEF54E484
:1021B0000E941F02DC01CB0188879987AA87BB8711
:1021C000688579858A859B8520E030E040E85FE37B
:1021D0000E94250488232CF481E090E09F838E8365
:1021E0003FC0688579858A859B8520E03FEF4FE772
:1021F00057E40E94C50318164CF56C857D858E85C5
:102200009F8520E030E040E251E40E941F02DC01A3
:10221000CB01BC01CD010E944900DC01CB019F83B1
:102220008E830FC088EC90E09D838C838C819D8190
:102230000197F1F79D838C838E819F8101979F8306
:102240008E838E819F81009769F724C06885798588
:102250008A859B850E944900DC01CB019F838E8388
:102260008E819F819B838A838A819B810197F1F76D
:102270009B838A830FC069897A898B899C890E9494
:102280004900DC01CB01888B8889898389818A9503
:10229000F1F7898382E062E040E00E94D707699607
:1022A0000FB6F894DEBF0FBECDBFCF91DF9108957A
:1022B000DF93CF9300D00F92CDB7DEB79B838A8395
:1022C00019820EC08981282F30E08A819B81FC0110
:1022D000E20FF31F80810E94840F89818F5F8983C1
:1022E0008981282F30E08A819B81FC01E20FF31F56
:1022F0008081882339F70F900F900F90CF91DF9155
:102300000895DF93CF93CDB7DEB727970FB6F89434
:10231000DEBF0FBECDBF9F838E8381E090E09B83A5
:102320008A838E819F81009751F58E81805D0E9406
:10233000840F45C08E819F812AE030E0B9010E9460
:10234000631A9D838C838A819B819C01220F331F9A
:10235000C901880F991F880F991F280F391F8C8179
:102360009D81820F931F9B838A838E819F812AE0A8
:1023700030E0B9010E94631ACB019F838E838E8166
:102380009F810097B9F616C08A819B812AE030E0D0
:10239000B9010E94631A89838981805D0E94840F3C
:1023A0008A819B812AE030E0B9010E94631ACB0147
:1023B0009B838A838A819B818130910529F72796A7
:1023C0000FB6F894DEBF0FBECDBFCF91DF91089559
:1023D000DF93CF9300D000D0CDB7DEB78A836B8375
:1023E0008A81882319F48B81898306C08A81813090
:1023F00019F48B81805C8983898180580E946E10DA
:102400000F900F900F900F90CF91DF910895DF9371
:10241000CF93CDB7DEB727970FB6F894DEBF0FBEC8
:10242000CDBF9C838B836D834E832F831A828D81D6
:10243000882F90E0880F991F880F991F880F991F88
:102440008A838A81805C0E946E1019820EC0898105
:10245000282F30E08B819C81FC01E20FF31F8081EB
:102460000E94840F89818F5F89838981883078F306
:102470008E816F810E94E8118D810E94840F2796C2
:102480000FB6F894DEBF0FBECDBFCF91DF91089598
:10249000DF93CF93CDB7DEB780E060E00E94E81114
:1024A00080E690E00E94581180E060E00E94E81110
:1024B000CF91DF9108950F931F93DF93CF93CDB703
:1024C000DEB7C058D0400FB6F894DEBF0FBECDBF08
:1024D0000E94810B0E94C10CFE01E158FF4F108247
:1024E0008AEA90E00E94581181E0809358018CE0C4
:1024F00080934901CE0180589F4F0E94A50BFE0199
:10250000E158FF4F8081813009F0B7C00E94251942
:10251000FE01E558FF4F80E090E0A0EFB1E480833A
:102520009183A283B3838E0109581F4FFE01E558A2
:10253000FF4F608171818281938120E030E04AEF1A
:1025400054E40E941F02DC01CB01F80180839183D7
:10255000A283B383FE01E958FF4F608171818281BC
:10256000938120E030E040E85FE30E942504882367
:1025700044F4FE01EB58FF4F81E090E091838083AB
:1025800064C0FE01E958FF4F6081718182819381AF
:1025900020E03FEF4FE757E40E94C50318160CF008
:1025A00043C0FE01E558FF4F6081718182819381B4
:1025B00020E030E040E251E40E941F02DC01CB0148
:1025C0008E010B581F4FBC01CD010E944900DC0158
:1025D000CB01F801918380831FC0FE01ED58FF4FAE
:1025E00088EC90E091838083FE01ED58FF4F80815D
:1025F00091810197F1F7FE01ED58FF4F91838083A0
:10260000DE01AB58BF4FFE01EB58FF4F8081918137
:10261000019711969C938E93FE01EB58FF4F80819A
:1026200091810097D1F6E6C08E010B581F4FFE0135
:10263000E958FF4F60817181828193810E94490036
:10264000DC01CB01F80191838083DE01AF58BF4FDD
:10265000FE01EB58FF4F8081918111969C938E93E0
:10266000FE01EF58FF4F808191810197F1F7FE0144
:10267000EF58FF4F91838083BDC0FE01E158FF4FAB
:102680008081823009F0B6C00E94BC19FE01E35976
:10269000FF4F80E090E0A0EFB1E480839183A283BC
:1026A000B3838E0107591F4FFE01E359FF4F60812D
:1026B00071818281938120E030E04AEF54E40E94EE
:1026C0001F02DC01CB01F80180839183A283B383D5
:1026D000FE01E759FF4F608171818281938120E083
:1026E00030E040E85FE30E942504882344F4FE01C3
:1026F000E959FF4F81E090E09183808364C0FE013F
:10270000E759FF4F608171818281938120E03FEF23
:102710004FE757E40E94C50318160CF043C0FE01B2
:10272000E359FF4F608171818281938120E030E025
:1027300040E251E40E941F02DC01CB018E010959E5
:102740001F4FBC01CD010E944900DC01CB01F80103
:10275000918380831FC0FE01EB59FF4F88EC90E00E
:1027600091838083FE01EB59FF4F80819181019716
:10277000F1F7FE01EB59FF4F91838083DE01A959E8
:10278000BF4FFE01E959FF4F80819181019711965A
:102790009C938E93FE01E959FF4F808191810097B0
:1027A000D1F628C08E0109591F4FFE01E759FF4F8E
:1027B00060817181828193810E944900DC01CB019B
:1027C000F80191838083DE01AD59BF4FFE01E959C5
:1027D000FF4F8081918111969C938E93FE01ED595C
:1027E000FF4F808191810197F1F7FE01ED59FF4F75
:1027F00091838083FE01E058FF4F80818F3F09F471
:1028000023C3FE01E158FF4F8081813009F096C15A
:1028100010925901FE01E058FF4F8081813309F089
:10282000BCC00E94BC19FE01E15AFF4F80E090E05D
:10283000A0EFB1E480839183A283B3838E01055A14
:102840001F4FFE01E15AFF4F6081718182819381A8
:1028500020E030E04AEF54E40E941F02DC01CB018B
:10286000F80180839183A283B383FE01E55AFF4F71
:10287000608171818281938120E030E040E85FE3F4
:102880000E942504882344F4FE01E75AFF4F81E0AB
:1028900090E09183808364C0FE01E55AFF4F608120
:1028A00071818281938120E03FEF4FE757E40E94DE
:1028B000C50318160CF043C0FE01E15AFF4F6081BA
:1028C00071818281938120E030E040E251E40E94F6
:1028D0001F02DC01CB018E01075A1F4FBC01CD0145
:1028E0000E944900DC01CB01F801918380831FC065
:1028F000FE01E95AFF4F88EC90E091838083FE014E
:10290000E95AFF4F808191810197F1F7FE01E95A61
:10291000FF4F91838083DE01A75ABF4FFE01E75A24
:10292000FF4F80819181019711969C938E93FE01B8
:10293000E75AFF4F808191810097D1F628C08E0120
:10294000075A1F4FFE01E55AFF4F60817181828156
:1029500093810E944900DC01CB01F80191838083BF
:10296000DE01AB5ABF4FFE01E75AFF4F80819181D4
:1029700011969C938E93FE01EB5AFF4F80819181BB
:102980000197F1F7FE01EB5AFF4F91838083FE011F
:10299000E158FF4F82E08083ADCDFE01E058FF4F4C
:1029A0008081823339F40E940419FE01E158FF4FFF
:1029B0001082A0CD0E94481280E060E00E94E811E1
:1029C00086EB90E00E945811FE01EF5AFF4F80E025
:1029D00090E0AAEFB4E480839183A283B3838E0155
:1029E000035B1F4FFE01EF5AFF4F608171818281AF
:1029F000938120E030E04AEF54E40E941F02DC01A2
:102A0000CB01F80180839183A283B383FE01E35B52
:102A1000FF4F608171818281938120E030E040E846
:102A20005FE30E942504882344F4FE01E55BFF4F29
:102A300081E090E09183808364C0FE01E35BFF4FFF
:102A4000608171818281938120E03FEF4FE757E4FD
:102A50000E94C50318160CF043C0FE01EF5AFF4F49
:102A6000608171818281938120E030E040E251E415
:102A70000E941F02DC01CB018E01055B1F4FBC01D0
:102A8000CD010E944900DC01CB01F80191838083D4
:102A90001FC0FE01E75BFF4F88EC90E091838083CD
:102AA000FE01E75BFF4F808191810197F1F7FE0105
:102AB000E75BFF4F91838083DE01A55BBF4FFE0183
:102AC000E55BFF4F80819181019711969C938E93D6
:102AD000FE01E55BFF4F808191810097D1F627C011
:102AE0008E01055B1F4FFE01E35BFF4F608171812B
:102AF000828193810E944900DC01CB01F80191831E
:102B00008083DE01A95BBF4FFE01E55BFF4F808143
:102B100091818D939C93FE01E95BFF4F80819181B0
:102B20000197F1F7FE01E95BFF4F918380830E94DB
:102B30000419FE01E158FF4F1082DCCCFE01E15880
:102B4000FF4F8081823009F0C9C010925901FE0107
:102B5000E058FF4F8081813359F481E062E041E029
:102B60000E94D70781E063E040E00E94D707C2CC13
:102B7000FE01E058FF4F8081823359F481E062E02A
:102B800040E00E94D70781E063E041E00E94D70760
:102B9000B1CCFE01E058FF4F8081833359F481E0CE
:102BA00062E041E00E94D70781E063E041E00E94DB
:102BB000D707A0CCFE01E058FF4F8081843309F095
:102BC00099CC0E942519FE01ED5BFF4F80E090E05B
:102BD000AAE7B4E480839183A283B3838E01015C6E
:102BE0001F4FFE01ED5BFF4F6081718182819381F8
:102BF00020E030E04AEF54E40E941F02DC01CB01E8
:102C0000F80180839183A283B383FE01FF966081E4
:102C100071818281938120E030E040E85FE30E948F
:102C2000250488232CF481E090E09EAF8DAF46C050
:102C3000FE01FF96608171818281938120E03FEFE8
:102C40004FE757E40E94C503181664F5FE01ED5BDB
:102C5000FF4F608171818281938120E030E040E20A
:102C600051E40E941F02DC01CB01BC01CD010E9496
:102C70004900DC01CB019EAF8DAF0FC088EC90E026
:102C80009CAF8BAF8BAD9CAD0197F1F79CAF8BAF39
:102C90008DAD9EAD01979EAF8DAF8DAD9EAD009772
:102CA00069F716C0FE01FF96608171818281938170
:102CB0000E944900DC01CB019EAF8DAF8DAD9EAD72
:102CC0009AAF89AF89AD9AAD0197F1F79AAF89AF05
:102CD000FE01E158FF4F81E080830CCCFE01E158FA
:102CE000FF4F8081882309F005CC80915801909195
:102CF0004901692F0E94E811809149018F5F8093FB
:102D000049018AE20E94840F80915901882F90E046
:102D1000FE01E058FF4F2081FC01E55AFE4F208361
:102D2000809159018F5F80935901809149018031D1
:102D300028F480915901843008F4DCCB10925901B9
:102D400081E0809349018CE08093580180E090E01D
:102D5000AAE7B4E48DAB9EABAFABB8AF6DA97EA9CB
:102D60008FA998AD20E030E04AEF54E40E941F02A2
:102D7000DC01CB0189AB9AABABABBCAB69A97AA93F
:102D80008BA99CA920E030E040E85FE30E94250485
:102D900088232CF481E090E098AB8FA73FC069A90D
:102DA0007AA98BA99CA920E03FEF4FE757E40E9446
:102DB000C50318164CF56DA97EA98FA998AD20E022
:102DC00030E040E251E40E941F02DC01CB01BC0173
:102DD000CD010E944900DC01CB0198AB8FA70FC049
:102DE00088EC90E09EA78DA78DA59EA50197F1F791
:102DF0009EA78DA78FA598A9019798AB8FA78FA5A0
:102E000098A9009769F714C069A97AA98BA99CA908
:102E10000E944900DC01CB0198AB8FA78FA598A930
:102E20009CA78BA78BA59CA50197F1F79CA78BA7C7
:102E30000E9448128BE591E02BE431E0B9010E9439
:102E4000CD1880934A0156CB80914A01882309F01E
:102E500088C00E94481282EC90E00E94581181E0E4
:102E600060E041E00E94D70780E090E0AAEFB4E480
:102E70008FA398A7A9A7BAA76FA178A589A59AA596
:102E800020E030E04AEF54E40E941F02DC01CB0155
:102E90008BA39CA3ADA3BEA36BA17CA18DA19EA17E
:102EA00020E030E040E85FE30E94250488232CF412
:102EB00081E090E09AA389A33FC06BA17CA18DA182
:102EC0009EA120E03FEF4FE757E40E94C50318168C
:102ED0004CF56FA178A589A59AA520E030E040E2E5
:102EE00051E40E941F02DC01CB01BC01CD010E9414
:102EF0004900DC01CB019AA389A30FC088EC90E0C4
:102F000098A38F8F8F8D98A10197F1F798A38F8F3A
:102F100089A19AA101979AA389A389A19AA100974F
:102F200069F714C06BA17CA18DA19EA10E944900EC
:102F3000DC01CB019AA389A389A19AA19E8F8D8FD1
:102F40008D8D9E8D0197F1F79E8F8D8F0E940419B4
:102F500082E080934A0180915A018F5F80935A01E9
:102F6000C9CA80915A01833008F482C010925A0174
:102F70000E9448128DEC90E00E94581181E060E0C0
:102F800041E00E94D70780E090E0AAEFB4E4898F87
:102F90009A8FAB8FBC8F698D7A8D8B8D9C8D20E045
:102FA00030E04AEF54E40E941F02DC01CB018D8B1C
:102FB0009E8BAF8BB88F6D897E898F89988D20E02D
:102FC00030E040E85FE30E94250488232CF481E090
:102FD00090E09C8B8B8B3FC06D897E898F89988D0B
:102FE00020E03FEF4FE757E40E94C50318164CF569
:102FF000698D7A8D8B8D9C8D20E030E040E251E42C
:103000000E941F02DC01CB01BC01CD010E944900DE
:10301000DC01CB019C8B8B8B0FC088EC90E09A8BF2
:10302000898B89899A890197F1F79A8B898B8B898A
:103030009C8901979C8B8B8B8B899C89009769F766
:1030400014C06D897E898F89988D0E944900DC01AA
:10305000CB019C8B8B8B8B899C89988B8F878F85E1
:1030600098890197F1F7988B8F870E94041942CABB
:1030700080914A01813009F03DCA80E060E00E9401
:10308000E8118BED90E00E94581181E060E00E9411
:10309000E81186EE90E00E94581181E061E041E085
:1030A0000E94D70780E090E8ABE3B5E48B879C876C
:1030B000AD87BE876B857C858D859E8520E030E061
:1030C0004AEF54E40E941F02DC01CB018F839887F2
:1030D000A987BA876F81788589859A8520E030E055
:1030E00040E85FE30E94250488232CF481E090E00F
:1030F0009E838D833FC06F81788589859A8520E086
:103100003FEF4FE757E40E94C50318164CF56B8557
:103110007C858D859E8520E030E040E251E40E9470
:103120001F02DC01CB01BC01CD010E944900DC0182
:10313000CB019E838D830FC088EC90E09C838B83B2
:103140008B819C810197F1F79C838B838D819E817C
:1031500001979E838D838D819E81009769F714C0AE
:103160006F81788589859A850E944900DC01CB01B1
:103170009E838D838D819E819A83898389819A81A3
:103180000197F1F79A83898382E080934A01FE01D7
:10319000E158FF4F81E08083ADC9DF93CF9300D02A
:1031A00000D000D0CDB7DEB79C838B837E836D8348
:1031B0001A8219821CC08981282F30E08B819C8162
:1031C000FC01E20FF31F40818981282F30E08D81BF
:1031D0009E81FC01E20FF31F8081481731F481E0EA
:1031E0008A8389818F5F898302C01A8203C08981A3
:1031F000843008F38A8126960FB6F894DEBF0FBE9E
:10320000CDBFCF91DF910895DF93CF93CDB7DEB7D8
:103210000E94481280E060E00E94E8118AEA90E093
:103220000E94581181E060E040E00E94D70781E0F1
:1032300061E040E00E94D70781E0809358018CE074
:1032400080934901CF91DF910895DF93CF93CDB75C
:10325000DEB72E970FB6F894DEBF0FBECDBF0E942B
:10326000481280E060E00E94E81186EF90E00E9442
:10327000581181E060E00E94E81182E091E00E9434
:10328000581180E090E0AAE7B4E48B879C87AD8773
:10329000BE876B857C858D859E8520E030E04AEF7A
:1032A00054E40E941F02DC01CB018F839887A98719
:1032B000BA876F81788589859A8520E030E040E87B
:1032C0005FE30E94250488232CF481E090E09E8334
:1032D0008D833FC06F81788589859A8520E03FEF97
:1032E0004FE757E40E94C50318164CF56B857C85A3
:1032F0008D859E8520E030E040E251E40E941F026F
:10330000DC01CB01BC01CD010E944900DC01CB01F5
:103310009E838D830FC088EC90E09C838B838B8190
:103320009C810197F1F79C838B838D819E8101970E
:103330009E838D838D819E81009769F714C06F8174
:10334000788589859A850E944900DC01CB019E839E
:103350008D838D819E819A83898389819A8101974A
:10336000F1F79A8389832E960FB6F894DEBF0FBECD
:10337000CDBFCF91DF910895DF93CF93CDB7DEB767
:103380002E970FB6F894DEBF0FBECDBF0E94481235
:1033900080E060E00E94E8118AE091E00E9458110C
:1033A00081E060E00E94E81180E191E00E94581104
:1033B00080E067E00E94E81187E191E00E945811E7
:1033C00081E067E00E94E8118FE191E00E945811CE
:1033D00080E090E0AAE7B4E48B879C87AD87BE8746
:1033E0006B857C858D859E8520E030E04AEF54E436
:1033F0000E941F02DC01CB018F839887A987BA87BF
:103400006F81788589859A8520E030E040E85FE328
:103410000E94250488232CF481E090E09E838D8314
:103420003FC06F81788589859A8520E03FEF4FE71F
:1034300057E40E94C50318164CF56B857C858D8575
:103440009E8520E030E040E251E40E941F02DC0152
:10345000CB01BC01CD010E944900DC01CB019E8360
:103460008D830FC088EC90E09C838B838B819C8143
:103470000197F1F79C838B838D819E8101979E83B9
:103480008D838D819E81009769F714C06F81788547
:1034900089859A850E944900DC01CB019E838D833A
:1034A0008D819E819A83898389819A810197F1F721
:1034B0009A8389832E960FB6F894DEBF0FBECDBFD8
:1034C000CF91DF910895AA1BBB1B51E107C0AA1F32
:1034D000BB1FA617B70710F0A61BB70B881F991FB5
:1034E0005A95A9F780959095BC01CD0108952F922A
:1034F0003F924F925F926F927F928F929F92AF9284
:10350000BF92CF92DF92EF92FF920F931F93CF93D0
:10351000DF93CDB7DEB7CA1BDB0B0FB6F894DEBF67
:103520000FBECDBF09942A88398848885F846E848D
:103530007D848C849B84AA84B984C884DF80EE80D7
:10354000FD800C811B81AA81B981CE0FD11D0FB6E0
:10355000F894DEBF0FBECDBFED010895F894FFCF04
:10356000202020202020202020202020202020205B
:10357000202020202020202020202020202020204B
:10358000202020202020202020202020202020203B
:10359000202020202020202020202020202020202B
:1035A0002020202020202020200050617373776F7E
:1035B0007264203A200057726F6E6720696E7075D2
:1035C000740057726F6E67205061737300416363BC
:1035D0006573732044656E6965640057656C636F3D
:1035E0006D6520546F004D6F746F72204461736875
:1035F000426F61726400312D204463204D6F746FFF
:103600007200322D204578697400312D2043570017
:10361000322D2043435700332D2053746F700034F4
:103620002D2052657475726E0000000000000000CD
:10363000003132332B3435362D3738392A302F25A7
:103640003D04050607030201000C02313233340049
:00000001FF
